{
  "_format": "hh-sol-artifact-1",
  "contractName": "Safe7579",
  "sourceName": "contracts/Safe7579.sol",
  "abi": [
    {
      "inputs": [],
      "name": "AccountAccessUnauthorized",
      "type": "error"
    },
    {
      "inputs": [],
      "name": "AccountInitializationFailed",
      "type": "error"
    },
    {
      "inputs": [],
      "name": "ExecutionFailed",
      "type": "error"
    },
    {
      "inputs": [
        {
          "internalType": "bytes4",
          "name": "msgSig",
          "type": "bytes4"
        }
      ],
      "name": "FallbackInstalled",
      "type": "error"
    },
    {
      "inputs": [
        {
          "internalType": "address",
          "name": "currentHook",
          "type": "address"
        }
      ],
      "name": "HookAlreadyInstalled",
      "type": "error"
    },
    {
      "inputs": [],
      "name": "HookPostCheckFailed",
      "type": "error"
    },
    {
      "inputs": [],
      "name": "InitializerError",
      "type": "error"
    },
    {
      "inputs": [
        {
          "internalType": "bytes4",
          "name": "msgSig",
          "type": "bytes4"
        }
      ],
      "name": "InvalidFallbackHandler",
      "type": "error"
    },
    {
      "inputs": [],
      "name": "InvalidHookType",
      "type": "error"
    },
    {
      "inputs": [
        {
          "internalType": "address",
          "name": "safe",
          "type": "address"
        }
      ],
      "name": "InvalidInitData",
      "type": "error"
    },
    {
      "inputs": [],
      "name": "InvalidInput",
      "type": "error"
    },
    {
      "inputs": [
        {
          "internalType": "address",
          "name": "module",
          "type": "address"
        }
      ],
      "name": "InvalidModule",
      "type": "error"
    },
    {
      "inputs": [],
      "name": "LinkedListError",
      "type": "error"
    },
    {
      "inputs": [],
      "name": "LinkedList_AlreadyInitialized",
      "type": "error"
    },
    {
      "inputs": [],
      "name": "LinkedList_AlreadyInitialized",
      "type": "error"
    },
    {
      "inputs": [
        {
          "internalType": "address",
          "name": "entry",
          "type": "address"
        }
      ],
      "name": "LinkedList_EntryAlreadyInList",
      "type": "error"
    },
    {
      "inputs": [
        {
          "internalType": "address",
          "name": "entry",
          "type": "address"
        }
      ],
      "name": "LinkedList_EntryAlreadyInList",
      "type": "error"
    },
    {
      "inputs": [
        {
          "internalType": "address",
          "name": "entry",
          "type": "address"
        }
      ],
      "name": "LinkedList_InvalidEntry",
      "type": "error"
    },
    {
      "inputs": [
        {
          "internalType": "address",
          "name": "entry",
          "type": "address"
        }
      ],
      "name": "LinkedList_InvalidEntry",
      "type": "error"
    },
    {
      "inputs": [],
      "name": "LinkedList_InvalidPage",
      "type": "error"
    },
    {
      "inputs": [],
      "name": "LinkedList_InvalidPage",
      "type": "error"
    },
    {
      "inputs": [
        {
          "internalType": "bytes4",
          "name": "msgSig",
          "type": "bytes4"
        }
      ],
      "name": "NoFallbackHandler",
      "type": "error"
    },
    {
      "inputs": [
        {
          "internalType": "CallType",
          "name": "callType",
          "type": "bytes1"
        }
      ],
      "name": "UnsupportedCallType",
      "type": "error"
    },
    {
      "inputs": [
        {
          "internalType": "ExecType",
          "name": "execType",
          "type": "bytes1"
        }
      ],
      "name": "UnsupportedExecType",
      "type": "error"
    },
    {
      "inputs": [
        {
          "internalType": "uint256",
          "name": "moduleTypeId",
          "type": "uint256"
        }
      ],
      "name": "UnsupportedModuleType",
      "type": "error"
    },
    {
      "inputs": [],
      "name": "ValidatorStorageHelperError",
      "type": "error"
    },
    {
      "anonymous": false,
      "inputs": [
        {
          "indexed": true,
          "internalType": "address",
          "name": "smartAccount",
          "type": "address"
        },
        {
          "indexed": true,
          "internalType": "contract IERC7484",
          "name": "registry",
          "type": "address"
        }
      ],
      "name": "ERC7484RegistryConfigured",
      "type": "event"
    },
    {
      "anonymous": false,
      "inputs": [
        {
          "indexed": false,
          "internalType": "uint256",
          "name": "moduleTypeId",
          "type": "uint256"
        },
        {
          "indexed": false,
          "internalType": "address",
          "name": "module",
          "type": "address"
        }
      ],
      "name": "ModuleInstalled",
      "type": "event"
    },
    {
      "anonymous": false,
      "inputs": [
        {
          "indexed": false,
          "internalType": "uint256",
          "name": "moduleTypeId",
          "type": "uint256"
        },
        {
          "indexed": false,
          "internalType": "address",
          "name": "module",
          "type": "address"
        }
      ],
      "name": "ModuleUninstalled",
      "type": "event"
    },
    {
      "anonymous": false,
      "inputs": [
        {
          "indexed": true,
          "internalType": "address",
          "name": "safe",
          "type": "address"
        }
      ],
      "name": "Safe7579Initialized",
      "type": "event"
    },
    {
      "anonymous": false,
      "inputs": [
        {
          "indexed": false,
          "internalType": "contract ISafe",
          "name": "safe",
          "type": "address"
        },
        {
          "indexed": false,
          "internalType": "uint256",
          "name": "numberInBatch",
          "type": "uint256"
        }
      ],
      "name": "TryExecutionFailed",
      "type": "event"
    },
    {
      "anonymous": false,
      "inputs": [
        {
          "indexed": false,
          "internalType": "contract ISafe",
          "name": "safe",
          "type": "address"
        },
        {
          "indexed": false,
          "internalType": "bool[]",
          "name": "success",
          "type": "bool[]"
        }
      ],
      "name": "TryExecutionsFailed",
      "type": "event"
    },
    {
      "stateMutability": "payable",
      "type": "fallback"
    },
    {
      "inputs": [],
      "name": "accountId",
      "outputs": [
        {
          "internalType": "string",
          "name": "accountImplementationId",
          "type": "string"
        }
      ],
      "stateMutability": "view",
      "type": "function"
    },
    {
      "inputs": [],
      "name": "domainSeparator",
      "outputs": [
        {
          "internalType": "bytes32",
          "name": "",
          "type": "bytes32"
        }
      ],
      "stateMutability": "view",
      "type": "function"
    },
    {
      "inputs": [],
      "name": "entryPoint",
      "outputs": [
        {
          "internalType": "address",
          "name": "",
          "type": "address"
        }
      ],
      "stateMutability": "view",
      "type": "function"
    },
    {
      "inputs": [
        {
          "internalType": "ModeCode",
          "name": "mode",
          "type": "bytes32"
        },
        {
          "internalType": "bytes",
          "name": "executionCalldata",
          "type": "bytes"
        }
      ],
      "name": "execute",
      "outputs": [],
      "stateMutability": "payable",
      "type": "function"
    },
    {
      "inputs": [
        {
          "internalType": "ModeCode",
          "name": "mode",
          "type": "bytes32"
        },
        {
          "internalType": "bytes",
          "name": "executionCalldata",
          "type": "bytes"
        }
      ],
      "name": "executeFromExecutor",
      "outputs": [
        {
          "internalType": "bytes[]",
          "name": "returnDatas",
          "type": "bytes[]"
        }
      ],
      "stateMutability": "payable",
      "type": "function"
    },
    {
      "inputs": [],
      "name": "getActiveHook",
      "outputs": [
        {
          "internalType": "address",
          "name": "hook",
          "type": "address"
        }
      ],
      "stateMutability": "view",
      "type": "function"
    },
    {
      "inputs": [
        {
          "internalType": "bytes4",
          "name": "selector",
          "type": "bytes4"
        }
      ],
      "name": "getActiveHook",
      "outputs": [
        {
          "internalType": "address",
          "name": "hook",
          "type": "address"
        }
      ],
      "stateMutability": "view",
      "type": "function"
    },
    {
      "inputs": [
        {
          "internalType": "address",
          "name": "cursor",
          "type": "address"
        },
        {
          "internalType": "uint256",
          "name": "size",
          "type": "uint256"
        }
      ],
      "name": "getExecutorsPaginated",
      "outputs": [
        {
          "internalType": "address[]",
          "name": "array",
          "type": "address[]"
        },
        {
          "internalType": "address",
          "name": "next",
          "type": "address"
        }
      ],
      "stateMutability": "view",
      "type": "function"
    },
    {
      "inputs": [
        {
          "internalType": "address",
          "name": "safe",
          "type": "address"
        },
        {
          "internalType": "address",
          "name": "validator",
          "type": "address"
        }
      ],
      "name": "getNonce",
      "outputs": [
        {
          "internalType": "uint256",
          "name": "nonce",
          "type": "uint256"
        }
      ],
      "stateMutability": "view",
      "type": "function"
    },
    {
      "inputs": [
        {
          "internalType": "address",
          "name": "start",
          "type": "address"
        },
        {
          "internalType": "uint256",
          "name": "pageSize",
          "type": "uint256"
        }
      ],
      "name": "getValidatorPaginated",
      "outputs": [
        {
          "internalType": "address[]",
          "name": "array",
          "type": "address[]"
        },
        {
          "internalType": "address",
          "name": "next",
          "type": "address"
        }
      ],
      "stateMutability": "view",
      "type": "function"
    },
    {
      "inputs": [
        {
          "components": [
            {
              "internalType": "address",
              "name": "module",
              "type": "address"
            },
            {
              "internalType": "bytes",
              "name": "initData",
              "type": "bytes"
            }
          ],
          "internalType": "struct ModuleInit[]",
          "name": "validators",
          "type": "tuple[]"
        },
        {
          "components": [
            {
              "internalType": "address",
              "name": "module",
              "type": "address"
            },
            {
              "internalType": "bytes",
              "name": "initData",
              "type": "bytes"
            }
          ],
          "internalType": "struct ModuleInit[]",
          "name": "executors",
          "type": "tuple[]"
        },
        {
          "components": [
            {
              "internalType": "address",
              "name": "module",
              "type": "address"
            },
            {
              "internalType": "bytes",
              "name": "initData",
              "type": "bytes"
            }
          ],
          "internalType": "struct ModuleInit[]",
          "name": "fallbacks",
          "type": "tuple[]"
        },
        {
          "components": [
            {
              "internalType": "address",
              "name": "module",
              "type": "address"
            },
            {
              "internalType": "bytes",
              "name": "initData",
              "type": "bytes"
            }
          ],
          "internalType": "struct ModuleInit[]",
          "name": "hooks",
          "type": "tuple[]"
        },
        {
          "components": [
            {
              "internalType": "contract IERC7484",
              "name": "registry",
              "type": "address"
            },
            {
              "internalType": "address[]",
              "name": "attesters",
              "type": "address[]"
            },
            {
              "internalType": "uint8",
              "name": "threshold",
              "type": "uint8"
            }
          ],
          "internalType": "struct RegistryInit",
          "name": "registryInit",
          "type": "tuple"
        }
      ],
      "name": "initializeAccount",
      "outputs": [],
      "stateMutability": "payable",
      "type": "function"
    },
    {
      "inputs": [
        {
          "internalType": "uint256",
          "name": "moduleType",
          "type": "uint256"
        },
        {
          "internalType": "address",
          "name": "module",
          "type": "address"
        },
        {
          "internalType": "bytes",
          "name": "initData",
          "type": "bytes"
        }
      ],
      "name": "installModule",
      "outputs": [],
      "stateMutability": "payable",
      "type": "function"
    },
    {
      "inputs": [
        {
          "internalType": "uint256",
          "name": "moduleType",
          "type": "uint256"
        },
        {
          "internalType": "address",
          "name": "module",
          "type": "address"
        },
        {
          "internalType": "bytes",
          "name": "additionalContext",
          "type": "bytes"
        }
      ],
      "name": "isModuleInstalled",
      "outputs": [
        {
          "internalType": "bool",
          "name": "",
          "type": "bool"
        }
      ],
      "stateMutability": "view",
      "type": "function"
    },
    {
      "inputs": [
        {
          "internalType": "bytes32",
          "name": "hash",
          "type": "bytes32"
        },
        {
          "internalType": "bytes",
          "name": "data",
          "type": "bytes"
        }
      ],
      "name": "isValidSignature",
      "outputs": [
        {
          "internalType": "bytes4",
          "name": "magicValue",
          "type": "bytes4"
        }
      ],
      "stateMutability": "view",
      "type": "function"
    },
    {
      "inputs": [
        {
          "components": [
            {
              "internalType": "address",
              "name": "module",
              "type": "address"
            },
            {
              "internalType": "bytes",
              "name": "initData",
              "type": "bytes"
            }
          ],
          "internalType": "struct ModuleInit[]",
          "name": "validators",
          "type": "tuple[]"
        }
      ],
      "name": "launchpadValidators",
      "outputs": [],
      "stateMutability": "payable",
      "type": "function"
    },
    {
      "inputs": [
        {
          "internalType": "contract IERC7484",
          "name": "registry",
          "type": "address"
        },
        {
          "internalType": "address[]",
          "name": "attesters",
          "type": "address[]"
        },
        {
          "internalType": "uint8",
          "name": "threshold",
          "type": "uint8"
        }
      ],
      "name": "setRegistry",
      "outputs": [],
      "stateMutability": "nonpayable",
      "type": "function"
    },
    {
      "inputs": [
        {
          "internalType": "ModeCode",
          "name": "encodedMode",
          "type": "bytes32"
        }
      ],
      "name": "supportsExecutionMode",
      "outputs": [
        {
          "internalType": "bool",
          "name": "supported",
          "type": "bool"
        }
      ],
      "stateMutability": "pure",
      "type": "function"
    },
    {
      "inputs": [
        {
          "internalType": "uint256",
          "name": "moduleTypeId",
          "type": "uint256"
        }
      ],
      "name": "supportsModule",
      "outputs": [
        {
          "internalType": "bool",
          "name": "",
          "type": "bool"
        }
      ],
      "stateMutability": "pure",
      "type": "function"
    },
    {
      "inputs": [
        {
          "internalType": "uint256",
          "name": "moduleType",
          "type": "uint256"
        },
        {
          "internalType": "address",
          "name": "module",
          "type": "address"
        },
        {
          "internalType": "bytes",
          "name": "deInitData",
          "type": "bytes"
        }
      ],
      "name": "uninstallModule",
      "outputs": [],
      "stateMutability": "payable",
      "type": "function"
    },
    {
      "inputs": [
        {
          "components": [
            {
              "internalType": "address",
              "name": "sender",
              "type": "address"
            },
            {
              "internalType": "uint256",
              "name": "nonce",
              "type": "uint256"
            },
            {
              "internalType": "bytes",
              "name": "initCode",
              "type": "bytes"
            },
            {
              "internalType": "bytes",
              "name": "callData",
              "type": "bytes"
            },
            {
              "internalType": "bytes32",
              "name": "accountGasLimits",
              "type": "bytes32"
            },
            {
              "internalType": "uint256",
              "name": "preVerificationGas",
              "type": "uint256"
            },
            {
              "internalType": "bytes32",
              "name": "gasFees",
              "type": "bytes32"
            },
            {
              "internalType": "bytes",
              "name": "paymasterAndData",
              "type": "bytes"
            },
            {
              "internalType": "bytes",
              "name": "signature",
              "type": "bytes"
            }
          ],
          "internalType": "struct PackedUserOperation",
          "name": "userOp",
          "type": "tuple"
        },
        {
          "internalType": "bytes32",
          "name": "userOpHash",
          "type": "bytes32"
        },
        {
          "internalType": "uint256",
          "name": "missingAccountFunds",
          "type": "uint256"
        }
      ],
      "name": "validateUserOp",
      "outputs": [
        {
          "internalType": "uint256",
          "name": "validSignature",
          "type": "uint256"
        }
      ],
      "stateMutability": "payable",
      "type": "function"
    },
    {
      "stateMutability": "payable",
      "type": "receive"
    }
  ],
  "bytecode": "0x60806040523480156200001157600080fd5b50604051620000209062000064565b604051809103906000f0801580156200003d573d6000803e3d6000fd5b50600080546001600160a01b0319166001600160a01b039290921691909117905562000072565b610a0b8062004e3983390190565b614db780620000826000396000f3fe6080604052600436106101635760003560e01c8063b0d691fe116100c0578063e9ae5c5311610074578063eab77e1711610059578063eab77e1714610482578063f2dc691d146104a2578063f698da25146104c25761016a565b8063e9ae5c531461044f578063ea5f61d0146104625761016a565b8063d03c7914116100a5578063d03c7914146103ef578063d691c9641461040f578063d828435d1461042f5761016a565b8063b0d691fe14610380578063b875d5d8146103a35761016a565b80636a5e1515116101175780639517e29f116100fc5780639517e29f146103385780639cfd7cff1461034b578063a71763a81461036d5761016a565b80636a5e1515146102f7578063855713681461030a5761016a565b80631626ba7e116101485780631626ba7e1461028857806319822f7c146102c1578063540fb4f9146102e25761016a565b80630a664dba14610214578063112d3a7d146102585761016a565b3661016a57005b600036606060003560e01c63bc197c81811463f23a6e6182141763150b7a028214171561019b57806020526020603cf35b5033600090815260056020908152604080832054600683528184206001600160e01b031985351680865293529083205491926001600160a01b039182169290911690806101e8848461052b565b915091506101f6888861060a565b955061020484848484610756565b5050505050915050805190602001f35b34801561022057600080fd5b50336000908152600560205260409020546001600160a01b03165b6040516001600160a01b0390911681526020015b60405180910390f35b34801561026457600080fd5b50610278610273366004613d4e565b6107f2565b604051901515815260200161024f565b34801561029457600080fd5b506102a86102a3366004613daa565b61084f565b6040516001600160e01b0319909116815260200161024f565b6102d46102cf366004613df6565b610b17565b60405190815260200161024f565b6102f56102f0366004613ea7565b610c3c565b005b6102f5610305366004613f8e565b610c89565b34801561031657600080fd5b5061032a610325366004613fd0565b610cea565b60405161024f929190613ffc565b6102f5610346366004613d4e565b610d06565b34801561035757600080fd5b50610360610e52565b60405161024f91906140ac565b6102f561037b366004613d4e565b610ee4565b34801561038c57600080fd5b506f71727de22e5e9d8baf0edac6f37da03261023b565b3480156103af57600080fd5b5061023b6103be3660046140d5565b3360009081526006602090815260408083206001600160e01b0319909416835292905220546001600160a01b031690565b3480156103fb57600080fd5b5061027861040a3660046140f2565b611072565b61042261041d366004613daa565b61111b565b60405161024f919061410b565b34801561043b57600080fd5b506102d461044a36600461416f565b61120f565b6102f561045d366004613daa565b6112e6565b34801561046e57600080fd5b5061032a61047d366004613fd0565b61168b565b34801561048e57600080fd5b506102f561049d3660046141b9565b6116b5565b3480156104ae57600080fd5b506102786104bd3660046140f2565b61170b565b3480156104ce57600080fd5b506102d4604080517f47e79534a245952e8b16893a336b85a3d9ea9fa8c573f3d803afb92a794692186020820152469181019190915230606082015260009060800160405160208183030381529060405280519060200120905090565b6060806001600160a01b038416156105c6576105ad3385600036601319013560601c5b346000366040516024016105659493929190614249565b60408051601f198184030181529190526020810180516001600160e01b03167fd68f60250000000000000000000000000000000000000000000000000000000017905261175a565b9150818060200190518101906105c39190614340565b91505b6001600160a01b03831615610603576105ea3384600036601319013560601c61054e565b9050808060200190518101906106009190614340565b90505b9250929050565b3360009081526004602090815260408083206001600160e01b0319843516845290915290208054606091906001600160a01b03811690600160a01b900460f81b81610694576040517f48c9ceda0000000000000000000000000000000000000000000000000000000081526001600160e01b03196000351660048201526024015b60405180910390fd5b6001600160f81b031981167ffe0000000000000000000000000000000000000000000000000000000000000003610705576106fb3383888836601319013560601c6040516020016106e793929190614375565b604051602081830303815290604052611803565b9350505050610750565b6001600160f81b0319811661074c576106fb33836000898936601319013560601c60405160200161073893929190614375565b60405160208183030381529060405261175a565b5050505b92915050565b6001600160a01b038416156107c5576107c5338560008560405160240161077d91906140ac565b60408051601f198184030181529190526020810180516001600160e01b03167f173bf7da000000000000000000000000000000000000000000000000000000001790526118f5565b6001600160a01b038316156107ec576107ec338460008460405160240161077d91906140ac565b50505050565b60006001850361080c5761080584611994565b9050610847565b6002850361081d57610805846119a2565b60038503610830576108058484846119bb565b6004850361084357610805848484611a08565b5060005b949350505050565b600033821580156108e057506040517f5ae6bd37000000000000000000000000000000000000000000000000000000008152600481018690526001600160a01b03821690635ae6bd3790602401602060405180830381865afa1580156108b9573d6000803e3d6000fd5b505050506040513d601f19601f820116820180604052508101906108dd919061439b565b15155b156108f55750630b135d3f60e11b9050610b10565b600061090460148286886143b4565b61090d916143de565b60601c9050801580610925575061092381611994565b155b15610a7b5760006109f0836001600160a01b031663f698da256040518163ffffffff1660e01b8152600401602060405180830381865afa15801561096d573d6000803e3d6000fd5b505050506040513d601f19601f82011682018060405250810190610991919061439b565b60408051602081018b90527f60b3cbf8b4a223d68d641b3b6ddf9a298e7f33710cf3d3a9d1146b5a6150fbca910160408051601f1981840301815282825280516020918201209083015201604051602081830303815290604052611a43565b805160208201209091506001600160a01b03841663934f3a118284610a188a6014818e6143b4565b6040518563ffffffff1660e01b8152600401610a379493929190614413565b60006040518083038186803b158015610a4f57600080fd5b505afa158015610a63573d6000803e3d6000fd5b50630b135d3f60e11b9750610b109650505050505050565b6000610af4338336601319013560601c8a610a998a6014818e6143b4565b604051602401610aac9493929190614249565b60408051601f198184030181529190526020810180516001600160e01b03167ff551e2ee00000000000000000000000000000000000000000000000000000000179052611803565b905080806020019051810190610b0a919061444a565b93505050505b9392505050565b600060131936013560601c6f71727de22e5e9d8baf0edac6f37da03214610b5157604051635629665f60e11b815260040160405180910390fd5b6020840135606081901c90811580610b6f5750610b6d82611994565b155b15610b8457610b7d86611abd565b9250610c02565b6000610be8338460008a8a604051602401610ba09291906144ad565b60408051601f198184030181529190526020810180516001600160e01b03167f970032030000000000000000000000000000000000000000000000000000000017905261175a565b905080806020019051810190610bfe919061439b565b9350505b8315610c3357610c33336f71727de22e5e9d8baf0edac6f37da03286604051806020016040528060008152506118f5565b50509392505050565b610c6e610c4c60208301836145ac565b610c5960208401846145c9565b610c696060860160408701614613565b611b7c565b610c7e8989898989898989611c43565b505050505050505050565b610c94600233611e9f565b8060005b818110156107ec5736848483818110610cb357610cb361462e565b9050602002810190610cc59190614644565b9050610ce133610cd860208401846145ac565b60029190611f1a565b50600101610c98565b60606000610cfb600233868661200f565b915091509250929050565b3360009081526005602090815260408083205460068352818420639517e29f60e01b80865293529083205491926001600160a01b03918216929091169080610d4e848461052b565b91509150606060018a03610d6e57610d678989896121d4565b9050610dec565b60028a03610d8157610d67898989612230565b60038a03610d9457610d6789898961229a565b60048a03610da757610d67898989612457565b89610db757610d678989896125ef565b6040517f41c38b30000000000000000000000000000000000000000000000000000000008152600481018b905260240161068b565b600054604051610e459133916001600160a01b0390911690610e16908e908e908790602401614664565b60408051601f198184030181529190526020810180516001600160e01b0316639517e29f60e01b179052612790565b50610c7e84848484610756565b60606000336001600160a01b031663ffa1ad746040518163ffffffff1660e01b8152600401600060405180830381865afa158015610e94573d6000803e3d6000fd5b505050506040513d6000823e601f3d908101601f19168201604052610ebc919081019061468c565b905080604051602001610ecf91906146d5565b60405160208183030381529060405291505090565b33600090815260056020908152604080832054600683528184207fa71763a80000000000000000000000000000000000000000000000000000000080865293529083205491926001600160a01b03918216929091169080610f45848461052b565b91509150610f606f71727de22e5e9d8baf0edac6f37da03290565b6001600160a01b031636601319013560601c6001600160a01b03161480610f8e57503360131936013560601c145b610fab57604051635629665f60e11b815260040160405180910390fd5b606060018a03610fc757610fc0898989612829565b9050611000565b60028a03610fda57610fc0898989612852565b60038a03610fed57610fc089898961287f565b60048a03610db757610fc08989896128cd565b600054604051610e459133916001600160a01b039091169061102a908e908e908790602401614664565b60408051601f198184030181529190526020810180516001600160e01b03167f7827252500000000000000000000000000000000000000000000000000000000179052612985565b600081600881901b6001600160f81b03198216600160f81b0361109857600192506110d4565b6001600160f81b031982166110b057600192506110d4565b6001600160f81b0319808316036110ca57600192506110d4565b5060009392505050565b8280156110e957506001600160f81b03198116155b156110f5575050919050565b82801561110f57506001600160f81b03198116600160f81b145b156110ca575050919050565b606061112d366013190135821c6119a2565b61116d576040517fb927fe5e00000000000000000000000000000000000000000000000000000000815260131936013560601c600482015260240161068b565b33600090815260056020908152604080832054600683528184207fd691c9640000000000000000000000000000000000000000000000000000000080865293529083205491926001600160a01b039182169290911690806111ce848461052b565b915091503360026111df8282612a4d565b8a600881901b6111f181838e8e612af1565b99505050505061120384848484610756565b50505050509392505050565b6000602082901b77ffffffffffffffffffffffffffffffffffffffff00000000166f71727de22e5e9d8baf0edac6f37da0326040517f35567e1a0000000000000000000000000000000000000000000000000000000081526001600160a01b03868116600483015277ffffffffffffffffffffffffffffffffffffffffffffffff8416602483015291909116906335567e1a90604401602060405180830381865afa1580156112c2573d6000803e3d6000fd5b505050506040513d601f19601f82011682018060405250810190610847919061439b565b33600090815260056020908152604080832054600683528184207fe9ae5c530000000000000000000000000000000000000000000000000000000080865293529083205491926001600160a01b03918216929091169080611347848461052b565b915091506113626f71727de22e5e9d8baf0edac6f37da03290565b6001600160a01b031636601319013560601c6001600160a01b0316148061139057503360131936013560601c145b6113ad57604051635629665f60e11b815260040160405180910390fd5b87600881901b336001600160f81b0319821661151c576001600160f81b03198316600160f81b036113f45789358a016020810190356113ed838383612ea4565b5050611672565b6001600160f81b03198316611466576000803660006114138e8e612f14565b935093509350935061145d85858585858080601f0160208091040260200160405190810160405280939291908181526020018383808284376000920191909152506118f592505050565b50505050611672565b6001600160f81b0319808416036114f75760006114866014828c8e6143b4565b61148f916143de565b60601c90503660008c8c60149080926114aa939291906143b4565b915091506114ef848484848080601f01602080910402602001604051908101604052809392919081815260200183838082843760009201919091525061279092505050565b505050611672565b604051632e5bf3f960e21b81526001600160f81b03198416600482015260240161068b565b6001600160f81b03198216600160f81b0361164d576001600160f81b03198316600160f81b0361155b5789358a016020810190356113ed838383612f65565b6001600160f81b031983166115c45760008036600061157a8e8e612f14565b935093509350935061145d85858585858080601f016020809104026020016040519081016040528093929190818152602001838380828437600092019190915250612fd592505050565b6001600160f81b0319808416036114f75760006115e46014828c8e6143b4565b6115ed916143de565b60601c90503660008c8c6014908092611608939291906143b4565b915091506114ef848484848080601f01602080910402602001604051908101604052809392919081815260200183838082843760009201919091525061298592505050565b6040516308c3ee0360e11b81526001600160f81b03198316600482015260240161068b565b50505061168184848484610756565b5050505050505050565b336000908152600360205260408120606091906116a981868661309d565b92509250509250929050565b60131936013560601c6f71727de22e5e9d8baf0edac6f37da03214806116e257503360131936013560601c145b6116ff57604051635629665f60e11b815260040160405180910390fd5b6107ec84848484611b7c565b60006001820361171d57506001919050565b6002820361172d57506001919050565b6003820361173d57506001919050565b6004820361174d57506001919050565b506000919050565b919050565b60606000856001600160a01b0316635229073f86868660006040518563ffffffff1660e01b81526004016117919493929190614741565b6000604051808303816000875af11580156117b0573d6000803e3d6000fd5b505050506040513d6000823e601f3d908101601f191682016040526117d8919081019061478d565b92509050806117fa57604051632b3f6d1160e21b815260040160405180910390fd5b50949350505050565b60606000838360405160240161181a9291906147db565b60408051601f198184030181529181526020820180516001600160e01b03167f6a221657000000000000000000000000000000000000000000000000000000001790526000805491519293509161187f916001600160a01b03169084906024016147db565b60408051601f19818403018152919052602080820180516001600160e01b03167fb4faba090000000000000000000000000000000000000000000000000000000017815282519293509091600091895afa5060203d036040519350808401604052806020853e50600051610c3357825160208401fd5b60405163468721a760e01b81526000906001600160a01b0386169063468721a79061192a908790879087908790600401614741565b6020604051808303816000875af1158015611949573d6000803e3d6000fd5b505050506040513d601f19601f8201168201806040525081019061196d91906147fd565b90508061198d57604051632b3f6d1160e21b815260040160405180910390fd5b5050505050565b60006107506002338461324a565b336000908152600360205260408120610b10818461328e565b6000806119ca838501856140d5565b3360009081526004602090815260408083206001600160e01b0319909416835292905220546001600160a01b03908116908616149150509392505050565b60008080611a1884860186614827565b915091506000611a2883836132c8565b6001600160a01b039081169088161493505050509392505050565b6060601960f81b600160f81b858585604051602001611a63929190614853565b60408051808303601f190181529082905280516020918201206001600160f81b0319958616918301919091529290931660218401526022830152604282015260620160405160208183030381529060405290509392505050565b600080600080366000611acf87613360565b845160208601206040517f934f3a11000000000000000000000000000000000000000000000000000000008152959a5093985091965094509250339163934f3a1191611b2391899087908790600401614413565b60006040518083038186803b158015611b3b57600080fd5b505afa925050508015611b4c575060015b611b6357611b5c600184866135e5565b9550611b72565b611b6f600084866135e5565b95505b5050505050919050565b3360008181526001602052604080822080546001600160a01b0319166001600160a01b03891617905551611c0792918791611bbf90869089908990602401614879565b60408051601f198184030181529190526020810180516001600160e01b03167ff05c04e1000000000000000000000000000000000000000000000000000000001790526118f5565b6040516001600160a01b0385169033907f9452c8fb077c3ea8f28a77c87488af657b1e44d010ad9a5992d73870da040e9490600090a350505050565b3360009081527fe90b7bceb6e7df5418fb78d8ee546e97c83a08bbccc01a0644d599ccd2a7c2e0602052604090205487906001600160a01b0316611cf057611c8c600233611e9f565b60005b81811015611cea57368a8a83818110611caa57611caa61462e565b9050602002810190611cbc9190614644565b9050611ce0611cce60208301836145ac565b611cdb60208401846148d4565b6121d4565b5050600101611c8f565b50611d2a565b8015611d2a576040517fd8e3ed1b00000000000000000000000000000000000000000000000000000000815233600482015260240161068b565b336000908152600360205260409020611d428161361d565b86915060005b82811015611da35736898983818110611d6357611d6361462e565b9050602002810190611d759190614644565b9050611d99611d8760208301836145ac565b611d9460208401846148d4565b612230565b5050600101611d48565b5084915060005b82811015611e055736878783818110611dc557611dc561462e565b9050602002810190611dd79190614644565b9050611dfb611de960208301836145ac565b611df660208401846148d4565b61229a565b5050600101611daa565b5082915060005b82811015611e675736858583818110611e2757611e2761462e565b9050602002810190611e399190614644565b9050611e5d611e4b60208301836145ac565b611e5860208401846148d4565b612457565b5050600101611e0c565b5060405133907ff48581d8a62b775b74f2fb67f1d5806a9a356fbcc598040ab3071d3e37af40c290600090a250505050505050505050565b60016000908152602083815260408083206001600160a01b0380861685529252909120541615611ee2576040516329e42f3360e11b815260040160405180910390fd5b60016000818152602093845260408082206001600160a01b0394909416825292909352912080546001600160a01b0319169091179055565b6001600160a01b0381161580611f3957506001600160a01b0381166001145b15611f6257604051637c84ecfb60e01b81526001600160a01b038216600482015260240161068b565b6001600160a01b0381811660009081526020858152604080832086851684529091529020541615611fb157604051631034f46960e21b81526001600160a01b038216600482015260240161068b565b60016000908152602084815260408083206001600160a01b039586168085528184528285208054968816808752988552838620918652908452919093208054949095166001600160a01b031994851617909455528154169091179055565b606060006001600160a01b038416600114801590612035575061203386868661324a565b155b1561205e57604051637c84ecfb60e01b81526001600160a01b038516600482015260240161068b565b8260000361207f5760405163f725081760e01b815260040160405180910390fd5b8267ffffffffffffffff8111156120985761209861427c565b6040519080825280602002602001820160405280156120c1578160200160208202803683370190505b506001600160a01b038086166000908152602089815260408083208a85168452909152812054929450911691505b6001600160a01b0382161580159061211157506001600160a01b038216600114155b801561211c57508381105b1561218157818382815181106121345761213461462e565b6001600160a01b039283166020918202929092018101919091529281166000908152888452604080822089841683529094529290922054909116908061217981614931565b9150506120ef565b6001600160a01b03821660011480159061219b5750600081115b156121c757826121ac60018361494a565b815181106121bc576121bc61462e565b602002602001015191505b8083525094509492505050565b60608360016121e38282612a4d565b6121ef60023388611f1a565b84848080601f016020809104026020016040519081016040528093929190818152602001838380828437600092019190915250929998505050505050505050565b606083600261223f8282612a4d565b336000908152600360205260409020612258818861367a565b85858080601f016020809104026020016040519081016040528093929190818152602001838380828437600092019190915250929a9950505050505050505050565b60608360036122a98282612a4d565b600080806122b9878901896149ae565b919450925090506001600160e01b031983167f6d61fe7000000000000000000000000000000000000000000000000000000000148061232157506001600160e01b031983167f8a91b0e300000000000000000000000000000000000000000000000000000000145b15612364576040517f79bd117b0000000000000000000000000000000000000000000000000000000081526001600160e01b03198416600482015260240161068b565b3360009081526004602090815260408083206001600160e01b0319871684529091529020546001600160a01b0316156123d5576040517f74420d150000000000000000000000000000000000000000000000000000000081526001600160e01b03198416600482015260240161068b565b3360009081526004602090815260408083206001600160e01b031990961683529490529290922080546001600160a01b038a166001600160a01b031960f89490941c600160a01b02939093167fffffffffffffffffffffff00000000000000000000000000000000000000000090911617919091179055925050509392505050565b60608360046124668282612a4d565b6000808061247687890189614a1d565b9194509250905060008084600181111561249257612492614a4b565b1480156124a757506001600160e01b03198316155b1561251d5750336000908152600560205260409020546001600160a01b031680156124f05760405163741cbe0360e01b81526001600160a01b038216600482015260240161068b565b33600090815260056020526040902080546001600160a01b0319166001600160a01b038c161790556125e2565b600184600181111561253157612531614a4b565b036125b0576001600160a01b038116156125695760405163741cbe0360e01b81526001600160a01b038216600482015260240161068b565b503360009081526006602090815260408083206001600160e01b031986168452909152902080546001600160a01b038b81166001600160a01b0319831617909255166125e2565b6040517f5691922f00000000000000000000000000000000000000000000000000000000815260040160405180910390fd5b5098975050505050505050565b60608235830160208181019135908581013586018082019190359060408801358801908101903584838114612650576040517fb4fa3fb300000000000000000000000000000000000000000000000000000000815260040160405180910390fd5b60005b8181101561274957600088888381811061266f5761266f61462e565b905060200201359050600181036126ae576126a88d8888858181106126965761269661462e565b9050602002810190611cdb91906148d4565b50612740565b600281036126de576126a88d8888858181106126cc576126cc61462e565b9050602002810190611d9491906148d4565b6003810361270e576126a88d8888858181106126fc576126fc61462e565b9050602002810190611df691906148d4565b600481036127405761273e8d88888581811061272c5761272c61462e565b9050602002810190611e5891906148d4565b505b50600101612653565b5082828080601f016020809104026020016040519081016040528093929190818152602001838380828437600092019190915250929e9d5050505050505050505050505050565b60405163468721a760e01b81526000906001600160a01b0385169063468721a7906127c690869085908790600190600401614741565b6020604051808303816000875af11580156127e5573d6000803e3d6000fd5b505050506040513d601f19601f8201168201806040525081019061280991906147fd565b9050806107ec57604051632b3f6d1160e21b815260040160405180910390fd5b6060600061283983850185614a61565b9250905061284a6002338388613750565b509392505050565b33600090815260036020526040812060609161287084860186614a61565b93509050610c33828288613847565b6060600061288f83850185614aa7565b3360009081526004602090815260408083206001600160e01b031990951683529390529190912080546001600160a01b031916905595945050505050565b60606000806128de84860186614a1d565b9450909250905060008260018111156128f9576128f9614a4b565b14801561290e57506001600160e01b03198116155b156129355733600090815260056020526040902080546001600160a01b0319169055610c33565b600182600181111561294957612949614a4b565b036125b0573360009081526006602090815260408083206001600160e01b031985168452909152902080546001600160a01b0319169055610c33565b60405163468721a760e01b81526000906001600160a01b0385169063468721a7906129bb90869085908790600190600401614741565b6020604051808303816000875af11580156129da573d6000803e3d6000fd5b505050506040513d601f19601f820116820180604052508101906129fe91906147fd565b9050806107ec57604080516001600160a01b0386168152600060208201527fb8bc84bd77f5eb08210b8eb20fd63b3ec6a7992d277ab94663bae0e066f792ac910160405180910390a150505050565b336000908152600160205260409020546001600160a01b03168015612aec576040517f529562a10000000000000000000000000000000000000000000000000000000081523360048201526001600160a01b0384811660248301526044820184905282169063529562a19060640160006040518083038186803b158015612ad357600080fd5b505afa158015612ae7573d6000803e3d6000fd5b505050505b505050565b60606001600160f81b03198516612cee576001600160f81b03198416600160f81b03612b355782358301602081019035612b2c33838361391c565b92505050610847565b6001600160f81b03198416612bf357600080366000612b548787612f14565b6040805160018082528183019092529498509296509094509250816020015b6060815260200190600190039081612b73579050509450612bcc33858585858080601f01602080910402602001604051908101604052809392919081815260200183838082843760009201919091525061175a92505050565b85600081518110612bdf57612bdf61462e565b602002602001018190525050505050610847565b6001600160f81b031980851603612cc9576000612c1360148285876143b4565b612c1c916143de565b60601c9050366000612c3185601481896143b4565b604080516001808252818301909252929450909250816020015b6060815260200190600190039081612c4b579050509350612ca3338484848080601f0160208091040260200160405190810160405280939291908181526020018383808284376000920191909152506139ae92505050565b84600081518110612cb657612cb661462e565b6020026020010181905250505050610847565b604051632e5bf3f960e21b81526001600160f81b03198516600482015260240161068b565b6001600160f81b03198516600160f81b03612e7f576001600160f81b03198416600160f81b03612d385782358301602081019035612d2d338383613a4f565b935061084792505050565b6001600160f81b03198416612dcf57600080366000612d578787612f14565b6040805160018082528183019092529498509296509094509250816020015b6060815260200190600190039081612d76579050509450612bcc33858585858080601f016020809104026020016040519081016040528093929190818152602001838380828437600092019190915250613aea92505050565b6001600160f81b031980851603612cc9576000612def60148285876143b4565b612df8916143de565b60601c9050366000612e0d85601481896143b4565b604080516001808252818301909252929450909250816020015b6060815260200190600190039081612e27579050509350612ca3338484848080601f016020809104026020016040519081016040528093929190818152602001838380828437600092019190915250613bbc92505050565b6040516308c3ee0360e11b81526001600160f81b03198616600482015260240161068b565b600054604051612aec9185916001600160a01b0390911690612ecc9086908690602401614ac5565b60408051601f198184030181529190526020810180516001600160e01b03167f3f707e6b00000000000000000000000000000000000000000000000000000000179052612790565b6000803681612f2660148287896143b4565b612f2f916143de565b60601c9350612f426034601487896143b4565b612f4b91614b70565b9250612f5a85603481896143b4565b949793965094505050565b600054604051612aec9185916001600160a01b0390911690612f8d9086908690602401614ac5565b60408051601f198184030181529190526020810180516001600160e01b03167f50c8902200000000000000000000000000000000000000000000000000000000179052612985565b60405163468721a760e01b81526000906001600160a01b0386169063468721a79061300a908790879087908790600401614741565b6020604051808303816000875af1158015613029573d6000803e3d6000fd5b505050506040513d601f19601f8201168201806040525081019061304d91906147fd565b90508061198d57604080516001600160a01b0387168152600060208201527fb8bc84bd77f5eb08210b8eb20fd63b3ec6a7992d277ab94663bae0e066f792ac910160405180910390a15050505050565b606060006001600160a01b0384166001148015906130c257506130c0858561328e565b155b156130eb57604051637c84ecfb60e01b81526001600160a01b038516600482015260240161068b565b8260000361310c5760405163f725081760e01b815260040160405180910390fd5b8267ffffffffffffffff8111156131255761312561427c565b60405190808252806020026020018201604052801561314e578160200160208202803683370190505b506001600160a01b03808616600090815260208890526040812054929450911691505b6001600160a01b0382161580159061319357506001600160a01b038216600114155b801561319e57508381105b156131f857818382815181106131b6576131b661462e565b6001600160a01b0392831660209182029290920181019190915292811660009081529287905260409092205490911690806131f081614931565b915050613171565b6001600160a01b0382166001148015906132125750600081115b1561323e578261322360018361494a565b815181106132335761323361462e565b602002602001015191505b80835250935093915050565b600060016001600160a01b038316148015906108475750506001600160a01b0390811660009081526020938452604080822093831682529290935291205416151590565b600060016001600160a01b03831614801590610b105750506001600160a01b03908116600090815260209290925260409091205416151590565b6000808360018111156132dd576132dd614a4b565b1480156132f257506001600160e01b03198216155b156133125750336000908152600560205260409020546001600160a01b03165b600183600181111561332657613326614a4b565b0361075057503360009081526006602090815260408083206001600160e01b0319851684529091529020546001600160a01b031692915050565b6060600080368181816133776101008901896148d4565b909250905061338a6006600083856143b4565b61339391614b8e565b60d01c95506133a6600c600683856143b4565b6133af91614b8e565b60d01c94506133c181600c81856143b4565b9350935050506000604051806101c001604052807f84aa190356f56b8c87825f54884392a9907c23ee0f8e1ea86336b763faf021bd60001b8152602001336001600160a01b031681526020018860200135815260200188806040019061342791906148d4565b604051613435929190614bd4565b604051908190039020815260200161345060608a018a6148d4565b60405161345e929190614bd4565b6040518091039020815260200161347489613c8e565b815260200161348289613cac565b81526020018860a00135815260200161349a89613cbc565b81526020016134a889613cda565b81526020016134ba60e08a018a6148d4565b6040516134c8929190614bd4565b604051809103902081526020018665ffffffffffff1681526020018565ffffffffffff1681526020016135086f71727de22e5e9d8baf0edac6f37da03290565b6001600160a01b031690526101c081209091507f1900000000000000000000000000000000000000000000000000000000000000600160f81b61359d604080517f47e79534a245952e8b16893a336b85a3d9ea9fa8c573f3d803afb92a794692186020820152469181019190915230606082015260009060800160405160208183030381529060405280519060200120905090565b6040516001600160f81b031993841660208201529290911660218301526022820152604281018290526062016040516020818303038152906040529650505091939590929450565b600060d08265ffffffffffff16901b60a08465ffffffffffff16901b8561360d576000613610565b60015b60ff161717949350505050565b60016000908152602082905260409020546001600160a01b031615613655576040516329e42f3360e11b815260040160405180910390fd5b60016000818152602092909252604090912080546001600160a01b0319169091179055565b6001600160a01b038116158061369957506001600160a01b0381166001145b156136c257604051637c84ecfb60e01b81526001600160a01b038216600482015260240161068b565b6001600160a01b03818116600090815260208490526040902054161561370657604051631034f46960e21b81526001600160a01b038216600482015260240161068b565b60016000818152602093909352604080842080546001600160a01b039485168087529286208054959091166001600160a01b03199586161790559190935280549091169091179055565b6001600160a01b038116158061376f57506001600160a01b0381166001145b1561379857604051637c84ecfb60e01b81526001600160a01b038316600482015260240161068b565b6001600160a01b0382811660009081526020868152604080832087851684529091529020548116908216146137eb57604051637c84ecfb60e01b81526001600160a01b038216600482015260240161068b565b6001600160a01b039081166000908152602085815260408083209584168084528683528184208054968616855297835281842090845282529091208054939092166001600160a01b031993841617909155919091528154169055565b6001600160a01b038116158061386657506001600160a01b0381166001145b1561388f57604051637c84ecfb60e01b81526001600160a01b038316600482015260240161068b565b6001600160a01b038281166000908152602085905260409020548116908216146138d757604051637c84ecfb60e01b81526001600160a01b038216600482015260240161068b565b6001600160a01b0390811660008181526020949094526040808520805494841686529085208054949093166001600160a01b0319948516179092559092528154169055565b600080546040516060929161398f9187916001600160a01b0316906139479088908890602401614ac5565b60408051601f198184030181529190526020810180516001600160e01b03167f61085573000000000000000000000000000000000000000000000000000000001790526139ae565b9050808060200190518101906139a59190614c93565b95945050505050565b60606000846001600160a01b0316635229073f8560008660016040518563ffffffff1660e01b81526004016139e69493929190614741565b6000604051808303816000875af1158015613a05573d6000803e3d6000fd5b505050506040513d6000823e601f3d908101601f19168201604052613a2d919081019061478d565b925090508061284a57604051632b3f6d1160e21b815260040160405180910390fd5b6060806000613ac78660008054906101000a90046001600160a01b03168787604051602401613a7f929190614ac5565b60408051601f198184030181529190526020810180516001600160e01b03167f9abb6e1700000000000000000000000000000000000000000000000000000000179052613bbc565b905080806020019051810190613add9190614cc8565b9097909650945050505050565b60606000856001600160a01b0316635229073f86868660006040518563ffffffff1660e01b8152600401613b219493929190614741565b6000604051808303816000875af1158015613b40573d6000803e3d6000fd5b505050506040513d6000823e601f3d908101601f19168201604052613b68919081019061478d565b92509050806117fa57604080516001600160a01b0388168152600060208201527fb8bc84bd77f5eb08210b8eb20fd63b3ec6a7992d277ab94663bae0e066f792ac910160405180910390a150949350505050565b60606000846001600160a01b0316635229073f8560008660016040518563ffffffff1660e01b8152600401613bf49493929190614741565b6000604051808303816000875af1158015613c13573d6000803e3d6000fd5b505050506040513d6000823e601f3d908101601f19168201604052613c3b919081019061478d565b925090508061284a57604080516001600160a01b0387168152600060208201527fb8bc84bd77f5eb08210b8eb20fd63b3ec6a7992d277ab94663bae0e066f792ac910160405180910390a1509392505050565b60006fffffffffffffffffffffffffffffffff608083013516610750565b6000610750826080013560801c90565b60006fffffffffffffffffffffffffffffffff60c083013516610750565b600060c082013560801c610750565b6001600160a01b0381168114613cfe57600080fd5b50565b803561175581613ce9565b60008083601f840112613d1e57600080fd5b50813567ffffffffffffffff811115613d3657600080fd5b60208301915083602082850101111561060357600080fd5b60008060008060608587031215613d6457600080fd5b843593506020850135613d7681613ce9565b9250604085013567ffffffffffffffff811115613d9257600080fd5b613d9e87828801613d0c565b95989497509550505050565b600080600060408486031215613dbf57600080fd5b83359250602084013567ffffffffffffffff811115613ddd57600080fd5b613de986828701613d0c565b9497909650939450505050565b600080600060608486031215613e0b57600080fd5b833567ffffffffffffffff811115613e2257600080fd5b84016101208187031215613e3557600080fd5b95602085013595506040909401359392505050565b60008083601f840112613e5c57600080fd5b50813567ffffffffffffffff811115613e7457600080fd5b6020830191508360208260051b850101111561060357600080fd5b600060608284031215613ea157600080fd5b50919050565b600080600080600080600080600060a08a8c031215613ec557600080fd5b893567ffffffffffffffff80821115613edd57600080fd5b613ee98d838e01613e4a565b909b50995060208c0135915080821115613f0257600080fd5b613f0e8d838e01613e4a565b909950975060408c0135915080821115613f2757600080fd5b613f338d838e01613e4a565b909750955060608c0135915080821115613f4c57600080fd5b613f588d838e01613e4a565b909550935060808c0135915080821115613f7157600080fd5b50613f7e8c828d01613e8f565b9150509295985092959850929598565b60008060208385031215613fa157600080fd5b823567ffffffffffffffff811115613fb857600080fd5b613fc485828601613e4a565b90969095509350505050565b60008060408385031215613fe357600080fd5b8235613fee81613ce9565b946020939093013593505050565b604080825283519082018190526000906020906060840190828701845b8281101561403e5781516001600160a01b031684529284019290840190600101614019565b50505080925050506001600160a01b03831660208301529392505050565b60005b8381101561407757818101518382015260200161405f565b50506000910152565b6000815180845261409881602086016020860161405c565b601f01601f19169290920160200192915050565b602081526000610b106020830184614080565b6001600160e01b031981168114613cfe57600080fd5b6000602082840312156140e757600080fd5b8135610b10816140bf565b60006020828403121561410457600080fd5b5035919050565b600060208083016020845280855180835260408601915060408160051b87010192506020870160005b8281101561416257603f19888603018452614150858351614080565b94509285019290850190600101614134565b5092979650505050505050565b6000806040838503121561418257600080fd5b823561418d81613ce9565b9150602083013561419d81613ce9565b809150509250929050565b803560ff8116811461175557600080fd5b600080600080606085870312156141cf57600080fd5b84356141da81613ce9565b9350602085013567ffffffffffffffff8111156141f657600080fd5b61420287828801613e4a565b90945092506142159050604086016141a8565b905092959194509250565b81835281816020850137506000828201602090810191909152601f909101601f19169091010190565b6001600160a01b0385168152836020820152606060408201526000614272606083018486614220565b9695505050505050565b634e487b7160e01b600052604160045260246000fd5b604051601f8201601f1916810167ffffffffffffffff811182821017156142bb576142bb61427c565b604052919050565b600067ffffffffffffffff8211156142dd576142dd61427c565b50601f01601f191660200190565b60006142fe6142f9846142c3565b614292565b905082815283838301111561431257600080fd5b610b1083602083018461405c565b600082601f83011261433157600080fd5b610b10838351602085016142eb565b60006020828403121561435257600080fd5b815167ffffffffffffffff81111561436957600080fd5b61084784828501614320565b8284823760609190911b6bffffffffffffffffffffffff19169101908152601401919050565b6000602082840312156143ad57600080fd5b5051919050565b600080858511156143c457600080fd5b838611156143d157600080fd5b5050820193919092039150565b6bffffffffffffffffffffffff19813581811691601485101561440b5780818660140360031b1b83161692505b505092915050565b84815260606020820152600061442c6060830186614080565b828103604084015261443f818587614220565b979650505050505050565b60006020828403121561445c57600080fd5b8151610b10816140bf565b6000808335601e1984360301811261447e57600080fd5b830160208101925035905067ffffffffffffffff81111561449e57600080fd5b80360382131561060357600080fd5b604081526144ce604082016144c185613d01565b6001600160a01b03169052565b6020830135606082015260006144e76040850185614467565b6101208060808601526144ff61016086018385614220565b925061450e6060880188614467565b9250603f19808786030160a0880152614528858584614220565b9450608089013560c088015260a089013560e0880152610100935060c08901358488015261455960e08a018a614467565b925081888703018489015261456f868483614220565b95505061457e848a018a614467565b945092508087860301610140880152505061459a838383614220565b93505050508260208301529392505050565b6000602082840312156145be57600080fd5b8135610b1081613ce9565b6000808335601e198436030181126145e057600080fd5b83018035915067ffffffffffffffff8211156145fb57600080fd5b6020019150600581901b360382131561060357600080fd5b60006020828403121561462557600080fd5b610b10826141a8565b634e487b7160e01b600052603260045260246000fd5b60008235603e1983360301811261465a57600080fd5b9190910192915050565b8381526001600160a01b03831660208201526060604082015260006139a56060830184614080565b60006020828403121561469e57600080fd5b815167ffffffffffffffff8111156146b557600080fd5b8201601f810184136146c657600080fd5b610847848251602084016142eb565b7f736166652d00000000000000000000000000000000000000000000000000000081526000825161470d81600585016020870161405c565b7f2e657263373537392e76302e302e3100000000000000000000000000000000006005939091019283015250601401919050565b6001600160a01b03851681528360208201526080604082015260006147696080830185614080565b905060ff8316606083015295945050505050565b8051801515811461175557600080fd5b600080604083850312156147a057600080fd5b6147a98361477d565b9150602083015167ffffffffffffffff8111156147c557600080fd5b6147d185828601614320565b9150509250929050565b6001600160a01b03831681526040602082015260006108476040830184614080565b60006020828403121561480f57600080fd5b610b108261477d565b80356002811061175557600080fd5b6000806040838503121561483a57600080fd5b61484383614818565b9150602083013561419d816140bf565b8281526000825161486b81602085016020870161405c565b919091016020019392505050565b60ff8416815260406020808301829052908201839052600090849060608401835b868110156148c85783356148ad81613ce9565b6001600160a01b03168252928201929082019060010161489a565b50979650505050505050565b6000808335601e198436030181126148eb57600080fd5b83018035915067ffffffffffffffff82111561490657600080fd5b60200191503681900382131561060357600080fd5b634e487b7160e01b600052601160045260246000fd5b6000600182016149435761494361491b565b5060010190565b818103818111156107505761075061491b565b600082601f83011261496e57600080fd5b813561497c6142f9826142c3565b81815284602083860101111561499157600080fd5b816020850160208301376000918101602001919091529392505050565b6000806000606084860312156149c357600080fd5b83356149ce816140bf565b925060208401356001600160f81b0319811681146149eb57600080fd5b9150604084013567ffffffffffffffff811115614a0757600080fd5b614a138682870161495d565b9150509250925092565b600080600060608486031215614a3257600080fd5b614a3b84614818565b925060208401356149eb816140bf565b634e487b7160e01b600052602160045260246000fd5b60008060408385031215614a7457600080fd5b8235614a7f81613ce9565b9150602083013567ffffffffffffffff811115614a9b57600080fd5b6147d18582860161495d565b60008060408385031215614aba57600080fd5b8235614a7f816140bf565b60208082528181018390526000906040808401600586901b850182018785805b89811015614b6157888403603f190185528235368c9003605e19018112614b0a578283fd5b8b0160608135614b1981613ce9565b6001600160a01b031686528189013589870152614b3888830183614467565b92508189880152614b4c8288018483614220565b978a0197965050509287019250600101614ae5565b50919998505050505050505050565b8035602083101561075057600019602084900360031b1b1692915050565b7fffffffffffff0000000000000000000000000000000000000000000000000000813581811691600685101561440b5760069490940360031b84901b1690921692915050565b8183823760009101908152919050565b600067ffffffffffffffff821115614bfe57614bfe61427c565b5060051b60200190565b600082601f830112614c1957600080fd5b81516020614c296142f983614be4565b82815260059290921b84018101918181019086841115614c4857600080fd5b8286015b84811015614c8857805167ffffffffffffffff811115614c6c5760008081fd5b614c7a8986838b0101614320565b845250918301918301614c4c565b509695505050505050565b600060208284031215614ca557600080fd5b815167ffffffffffffffff811115614cbc57600080fd5b61084784828501614c08565b60008060408385031215614cdb57600080fd5b825167ffffffffffffffff80821115614cf357600080fd5b818501915085601f830112614d0757600080fd5b81516020614d176142f983614be4565b82815260059290921b84018101918181019089841115614d3657600080fd5b948201945b83861015614d5b57614d4c8661477d565b82529482019490820190614d3b565b91880151919650909350505080821115614d7457600080fd5b506147d185828601614c0856fea2646970667358221220310490ce1c9ce1b361eae1667f3c75f8c90f8265fa8bcd2024bdff0a007dc05564736f6c63430008170033608060405234801561001057600080fd5b506109eb806100206000396000f3fe608060405234801561001057600080fd5b506004361061007d5760003560e01c80636a2216571161005b5780636a221657146100df57806378272525146100f25780639517e29f146101055780639abb6e171461011857600080fd5b80633f707e6b1461008257806350c890221461009757806361085573146100bf575b600080fd5b6100956100903660046105fb565b610139565b005b6100aa6100a53660046105fb565b6101a3565b60405190151581526020015b60405180910390f35b6100d26100cd3660046105fb565b610212565b6040516100b691906106f8565b6100956100ed366004610744565b6102cc565b610095610100366004610806565b6102ef565b610095610113366004610806565b6103b1565b61012b6101263660046105fb565b610469565b6040516100b692919061088d565b8060005b8181101561019d5736848483818110610158576101586108e7565b905060200281019061016a91906108fd565b905061019361017c602083018361091d565b602083013561018e6040850185610938565b610593565b505060010161013d565b50505050565b600081815b8181101561020a57368585838181106101c3576101c36108e7565b90506020028101906101d591906108fd565b90506101fe6101e7602083018361091d565b60208301356101f96040850185610938565b6105c9565b509350506001016101a8565b505092915050565b6060818067ffffffffffffffff81111561022e5761022e61072e565b60405190808252806020026020018201604052801561026157816020015b606081526020019060019003908161024c5790505b50915060005b8181101561020a5736858583818110610282576102826108e7565b905060200281019061029491906108fd565b90506102a661017c602083018361091d565b8483815181106102b8576102b86108e7565b602090810291909101015250600101610267565b604051600080835160208501865afa3d6000833e80156102ea573d82f35b503d81fd5b6040517f8a91b0e30000000000000000000000000000000000000000000000000000000081526001600160a01b03841690638a91b0e3906103369085908590600401610986565b600060405180830381600087803b15801561035057600080fd5b505af1158015610364573d6000803e3d6000fd5b5050604080518781526001600160a01b03871660208201527f341347516a9de374859dfda710fa4828b2d48cb57d4fbe4c1149612b8e02276e93500190505b60405180910390a150505050565b6040517f6d61fe700000000000000000000000000000000000000000000000000000000081526001600160a01b03841690636d61fe70906103f89085908590600401610986565b600060405180830381600087803b15801561041257600080fd5b505af1158015610426573d6000803e3d6000fd5b5050604080518781526001600160a01b03871660208201527fd21d0b289f126c4b473ea641963e766833c2f13866e4ff480abd787c100ef12393500190506103a3565b606080828067ffffffffffffffff8111156104865761048661072e565b6040519080825280602002602001820160405280156104b957816020015b60608152602001906001900390816104a45790505b5091508067ffffffffffffffff8111156104d5576104d561072e565b6040519080825280602002602001820160405280156104fe578160200160208202803683370190505b50925060005b8181101561058a573686868381811061051f5761051f6108e7565b905060200281019061053191906108fd565b90506105436101e7602083018361091d565b868481518110610555576105556108e7565b6020026020010186858151811061056e5761056e6108e7565b6020908102919091010191909152901515905250600101610504565b50509250929050565b60405181838237600038838387895af16105b0573d6000823e3d81fd5b3d8152602081013d6000823e3d01604052949350505050565b604051600090828482376000388483888a5af11591503d8152602081013d6000823e3d81016040525094509492505050565b6000806020838503121561060e57600080fd5b823567ffffffffffffffff8082111561062657600080fd5b818501915085601f83011261063a57600080fd5b81358181111561064957600080fd5b8660208260051b850101111561065e57600080fd5b60209290920196919550909350505050565b600082825180855260208086019550808260051b8401018186016000805b858110156106ea57601f1980888603018b5283518051808752845b818110156106c4578281018901518882018a015288016106a9565b5086810188018590529b87019b601f01909116909401850193509184019160010161068e565b509198975050505050505050565b60208152600061070b6020830184610670565b9392505050565b80356001600160a01b038116811461072957600080fd5b919050565b634e487b7160e01b600052604160045260246000fd5b6000806040838503121561075757600080fd5b61076083610712565b9150602083013567ffffffffffffffff8082111561077d57600080fd5b818501915085601f83011261079157600080fd5b8135818111156107a3576107a361072e565b604051601f8201601f19908116603f011681019083821181831017156107cb576107cb61072e565b816040528281528860208487010111156107e457600080fd5b8260208601602083013760006020848301015280955050505050509250929050565b6000806000806060858703121561081c57600080fd5b8435935061082c60208601610712565b9250604085013567ffffffffffffffff8082111561084957600080fd5b818701915087601f83011261085d57600080fd5b81358181111561086c57600080fd5b88602082850101111561087e57600080fd5b95989497505060200194505050565b604080825283519082018190526000906020906060840190828701845b828110156108c85781511515845292840192908401906001016108aa565b50505083810360208501526108dd8186610670565b9695505050505050565b634e487b7160e01b600052603260045260246000fd5b60008235605e1983360301811261091357600080fd5b9190910192915050565b60006020828403121561092f57600080fd5b61070b82610712565b6000808335601e1984360301811261094f57600080fd5b83018035915067ffffffffffffffff82111561096a57600080fd5b60200191503681900382131561097f57600080fd5b9250929050565b60208152816020820152818360408301376000818301604090810191909152601f909201601f1916010191905056fea2646970667358221220b34bcdfa8e8aa5a58ed221d3799926e5a9a47e630242a4d564baf7fa090efe3364736f6c63430008170033",
  "linkReferences": {},
  "deployedLinkReferences": {}
}