{
  "_format": "hh-sol-artifact-1",
  "contractName": "SpendLimitSession",
  "sourceName": "contracts/SpendLImitSession.sol",
  "abi": [
    {
      "inputs": [
        {
          "internalType": "address",
          "name": "smartAccount",
          "type": "address"
        }
      ],
      "name": "AlreadyInitialized",
      "type": "error"
    },
    {
      "inputs": [],
      "name": "ExecutionFailed",
      "type": "error"
    },
    {
      "inputs": [
        {
          "internalType": "address",
          "name": "smartAccount",
          "type": "address"
        }
      ],
      "name": "NotInitialized",
      "type": "error"
    },
    {
      "anonymous": false,
      "inputs": [
        {
          "indexed": true,
          "internalType": "address",
          "name": "sessionKey",
          "type": "address"
        },
        {
          "indexed": true,
          "internalType": "address",
          "name": "account",
          "type": "address"
        }
      ],
      "name": "SessionKeyAdded",
      "type": "event"
    },
    {
      "inputs": [
        {
          "internalType": "address",
          "name": "sessionKey",
          "type": "address"
        },
        {
          "internalType": "address",
          "name": "token",
          "type": "address"
        },
        {
          "components": [
            {
              "internalType": "address",
              "name": "account",
              "type": "address"
            },
            {
              "internalType": "uint48",
              "name": "validAfter",
              "type": "uint48"
            },
            {
              "internalType": "uint48",
              "name": "validUntil",
              "type": "uint48"
            },
            {
              "internalType": "uint256",
              "name": "limitAmount",
              "type": "uint256"
            },
            {
              "internalType": "uint256",
              "name": "limitUsed",
              "type": "uint256"
            },
            {
              "internalType": "uint48",
              "name": "lastUsed",
              "type": "uint48"
            },
            {
              "internalType": "uint48",
              "name": "refreshInterval",
              "type": "uint48"
            }
          ],
          "internalType": "struct SpendLimitSession.SessionData",
          "name": "sessionData",
          "type": "tuple"
        }
      ],
      "name": "addSessionKey",
      "outputs": [],
      "stateMutability": "nonpayable",
      "type": "function"
    },
    {
      "inputs": [
        {
          "internalType": "address",
          "name": "sessionKey",
          "type": "address"
        },
        {
          "internalType": "address",
          "name": "to",
          "type": "address"
        },
        {
          "internalType": "uint256",
          "name": "value",
          "type": "uint256"
        },
        {
          "internalType": "bytes",
          "name": "data",
          "type": "bytes"
        }
      ],
      "name": "execute",
      "outputs": [
        {
          "internalType": "bytes",
          "name": "",
          "type": "bytes"
        }
      ],
      "stateMutability": "nonpayable",
      "type": "function"
    },
    {
      "inputs": [
        {
          "internalType": "address",
          "name": "smartAccount",
          "type": "address"
        }
      ],
      "name": "isInitialized",
      "outputs": [
        {
          "internalType": "bool",
          "name": "",
          "type": "bool"
        }
      ],
      "stateMutability": "view",
      "type": "function"
    },
    {
      "inputs": [
        {
          "internalType": "uint256",
          "name": "typeID",
          "type": "uint256"
        }
      ],
      "name": "isModuleType",
      "outputs": [
        {
          "internalType": "bool",
          "name": "",
          "type": "bool"
        }
      ],
      "stateMutability": "pure",
      "type": "function"
    },
    {
      "inputs": [
        {
          "internalType": "address",
          "name": "",
          "type": "address"
        },
        {
          "internalType": "bytes32",
          "name": "hash",
          "type": "bytes32"
        },
        {
          "internalType": "bytes",
          "name": "data",
          "type": "bytes"
        }
      ],
      "name": "isValidSignatureWithSender",
      "outputs": [
        {
          "internalType": "bytes4",
          "name": "",
          "type": "bytes4"
        }
      ],
      "stateMutability": "view",
      "type": "function"
    },
    {
      "inputs": [],
      "name": "name",
      "outputs": [
        {
          "internalType": "string",
          "name": "",
          "type": "string"
        }
      ],
      "stateMutability": "pure",
      "type": "function"
    },
    {
      "inputs": [
        {
          "internalType": "bytes",
          "name": "data",
          "type": "bytes"
        }
      ],
      "name": "onInstall",
      "outputs": [],
      "stateMutability": "nonpayable",
      "type": "function"
    },
    {
      "inputs": [
        {
          "internalType": "bytes",
          "name": "",
          "type": "bytes"
        }
      ],
      "name": "onUninstall",
      "outputs": [],
      "stateMutability": "nonpayable",
      "type": "function"
    },
    {
      "inputs": [
        {
          "internalType": "address",
          "name": "",
          "type": "address"
        },
        {
          "internalType": "address",
          "name": "",
          "type": "address"
        }
      ],
      "name": "sessionKeys",
      "outputs": [
        {
          "internalType": "address",
          "name": "account",
          "type": "address"
        },
        {
          "internalType": "uint48",
          "name": "validAfter",
          "type": "uint48"
        },
        {
          "internalType": "uint48",
          "name": "validUntil",
          "type": "uint48"
        },
        {
          "internalType": "uint256",
          "name": "limitAmount",
          "type": "uint256"
        },
        {
          "internalType": "uint256",
          "name": "limitUsed",
          "type": "uint256"
        },
        {
          "internalType": "uint48",
          "name": "lastUsed",
          "type": "uint48"
        },
        {
          "internalType": "uint48",
          "name": "refreshInterval",
          "type": "uint48"
        }
      ],
      "stateMutability": "view",
      "type": "function"
    },
    {
      "inputs": [
        {
          "components": [
            {
              "internalType": "address",
              "name": "sender",
              "type": "address"
            },
            {
              "internalType": "uint256",
              "name": "nonce",
              "type": "uint256"
            },
            {
              "internalType": "bytes",
              "name": "initCode",
              "type": "bytes"
            },
            {
              "internalType": "bytes",
              "name": "callData",
              "type": "bytes"
            },
            {
              "internalType": "bytes32",
              "name": "accountGasLimits",
              "type": "bytes32"
            },
            {
              "internalType": "uint256",
              "name": "preVerificationGas",
              "type": "uint256"
            },
            {
              "internalType": "bytes32",
              "name": "gasFees",
              "type": "bytes32"
            },
            {
              "internalType": "bytes",
              "name": "paymasterAndData",
              "type": "bytes"
            },
            {
              "internalType": "bytes",
              "name": "signature",
              "type": "bytes"
            }
          ],
          "internalType": "struct PackedUserOperation",
          "name": "userOp",
          "type": "tuple"
        },
        {
          "internalType": "bytes32",
          "name": "userOpHash",
          "type": "bytes32"
        }
      ],
      "name": "validateUserOp",
      "outputs": [
        {
          "internalType": "ERC7579ValidatorBase.ValidationData",
          "name": "",
          "type": "uint256"
        }
      ],
      "stateMutability": "view",
      "type": "function"
    },
    {
      "inputs": [],
      "name": "version",
      "outputs": [
        {
          "internalType": "string",
          "name": "",
          "type": "string"
        }
      ],
      "stateMutability": "pure",
      "type": "function"
    }
  ],
  "bytecode": "0x608060405234801561001057600080fd5b50611206806100206000396000f3fe608060405234801561001057600080fd5b50600436106100c95760003560e01c80639700320311610081578063e4e309ec1161005b578063e4e309ec1461027a578063ecd059611461028d578063f551e2ee146102a057600080fd5b806397003203146102225780639aefaff814610243578063d60b347f1461025657600080fd5b80636d61fe70116100b25780636d61fe70146101525780638a91b0e31461015257806396ade1f91461016657600080fd5b806306fdde03146100ce57806354fd4d5014610119575b600080fd5b60408051808201909152601181527f5370656e644c696d697453657373696f6e00000000000000000000000000000060208201525b6040516101109190610ad6565b60405180910390f35b60408051808201909152600581527f302e302e310000000000000000000000000000000000000000000000000000006020820152610103565b610164610160366004610b32565b5050565b005b6101d6610174366004610b8c565b600060208181529281526040808220909352908152208054600182015460028301546003909301546001600160a01b0383169365ffffffffffff600160a01b8504811694600160d01b9004811693928082169166010000000000009091041687565b604080516001600160a01b03909816885265ffffffffffff96871660208901529486169487019490945260608601929092526080850152821660a08401521660c082015260e001610110565b610235610230366004610bc5565b6102e9565b604051908152602001610110565b610103610251366004610c10565b6103f1565b61026a610264366004610c83565b50600090565b6040519015158152602001610110565b610164610288366004610ca0565b61056c565b61026a61029b366004610cf4565b61060d565b6102b86102ae366004610d0d565b6000949350505050565b6040517fffffffff000000000000000000000000000000000000000000000000000000009091168152602001610110565b600036816102fa6060860186610d69565b610308916064908290610db0565b9150915060008036600061031c8686610620565b9296509094509250905060006103358260308186610db0565b61033e91610dda565b60601c905060006103cb6103778b6020527b19457468657265756d205369676e6564204d6573736167653a0a3332600052603c60042090565b6103856101008e018e610d69565b8080601f016020809104026020016040519081016040528093929190818152602001838380828437600092019190915250506001600160a01b0387169392915050610671565b90506103e0811565ffffffffffff6000610777565b985050505050505050505b92915050565b606060008415610402576000610404565b855b9050600085156104145785610453565b61045385858080601f01602080910402602001604051908101604052809392919081815260200183838082843760009201919091525061078c92505050565b90506104608189846107a8565b610496576040517facfdb44400000000000000000000000000000000000000000000000000000000815260040160405180910390fd5b6001600160a01b038089166000908152602081815260408083208685168452825291829020825160e0810184528154948516815265ffffffffffff600160a01b8604811682850152600160d01b909504851681850152600182015460608201526002820154608082015260039091015480851660a08301526601000000000000900490931660c08401528151601f880182900482028101820190925286825261055f9133918b9186918b908b90819084018382808284376000920191909152506108ce92505050565b9998505050505050505050565b6001600160a01b03808416600090815260208181526040808320938616835292905220819061059b8282610e27565b50506001600160a01b038084166000818152602081815260408083209487168352939052828120805473ffffffffffffffffffffffffffffffffffffffff19163390811790915592517f18181a00afae36a38027e087bdecba0ee3dd48839669ffb2b1484450c703267b9190a3505050565b600060018214806103eb57505060021490565b60008036816106326014828789610db0565b61063b91610dda565b60601c935061064e603460148789610db0565b61065791610f8b565b92506106668560348189610db0565b949793965094505050565b6001600160a01b0390921691600083156107705760405183600052602083015160405260408351036106e1576040830151601b8160ff1c016020528060011b60011c60605250602060016080600060015afa805186183d15176106df57506000606052604052506001610770565b505b604183510361072757606083015160001a6020526040830151606052602060016080600060015afa805186183d151761072557506000606052604052506001610770565b505b600060605280604052631626ba7e60e01b808252846004830152602482016040815284516020018060448501828860045afa505060208160443d01858a5afa9051909114169150505b9392505050565b6000610784848484610984565b949350505050565b60006044825110156107a057506000919050565b506044015190565b6001600160a01b038083166000908152602081815260408083209385168352929052908120600381015460018201546002830154835465ffffffffffff660100000000000085048116948116939291600160a01b90041642108061081b57508454600160d01b900465ffffffffffff1642115b1561082e57600095505050505050610770565b65ffffffffffff841615806108535750426108498585610fa9565b65ffffffffffff16115b15610886578881018981108061086857508281115b1561087c5760009650505050505050610770565b60028601556108bf565b8189111561089c57600095505050505050610770565b6002850189905560038501805465ffffffffffff19164265ffffffffffff161790555b50600198975050505050505050565b606060006108de818080806109bc565b9050856001600160a01b031663d691c964826108fb888888610a57565b6040518363ffffffff1660e01b8152600401610918929190610fdd565b6000604051808303816000875af1158015610937573d6000803e3d6000fd5b505050506040513d6000823e601f3d908101601f1916820160405261095f919081019061103d565b60008151811061097157610971611154565b6020026020010151915050949350505050565b600060d08265ffffffffffff16901b60a08465ffffffffffff16901b856109ac5760006109af565b60015b60ff161717949350505050565b604080517fff000000000000000000000000000000000000000000000000000000000000008087166020830152851660218201526000602282018190527fffffffff000000000000000000000000000000000000000000000000000000008516602683015269ffffffffffffffffffff198416602a8301529101604051602081830303815290604052610a4e9061116a565b95945050505050565b6060838383604051602001610a6e93929190611191565b60405160208183030381529060405290509392505050565b60005b83811015610aa1578181015183820152602001610a89565b50506000910152565b60008151808452610ac2816020860160208601610a86565b601f01601f19169290920160200192915050565b6020815260006107706020830184610aaa565b60008083601f840112610afb57600080fd5b50813567ffffffffffffffff811115610b1357600080fd5b602083019150836020828501011115610b2b57600080fd5b9250929050565b60008060208385031215610b4557600080fd5b823567ffffffffffffffff811115610b5c57600080fd5b610b6885828601610ae9565b90969095509350505050565b6001600160a01b0381168114610b8957600080fd5b50565b60008060408385031215610b9f57600080fd5b8235610baa81610b74565b91506020830135610bba81610b74565b809150509250929050565b60008060408385031215610bd857600080fd5b823567ffffffffffffffff811115610bef57600080fd5b83016101208186031215610c0257600080fd5b946020939093013593505050565b600080600080600060808688031215610c2857600080fd5b8535610c3381610b74565b94506020860135610c4381610b74565b935060408601359250606086013567ffffffffffffffff811115610c6657600080fd5b610c7288828901610ae9565b969995985093965092949392505050565b600060208284031215610c9557600080fd5b813561077081610b74565b6000806000838503610120811215610cb757600080fd5b8435610cc281610b74565b93506020850135610cd281610b74565b925060e0603f1982011215610ce657600080fd5b506040840190509250925092565b600060208284031215610d0657600080fd5b5035919050565b60008060008060608587031215610d2357600080fd5b8435610d2e81610b74565b935060208501359250604085013567ffffffffffffffff811115610d5157600080fd5b610d5d87828801610ae9565b95989497509550505050565b6000808335601e19843603018112610d8057600080fd5b83018035915067ffffffffffffffff821115610d9b57600080fd5b602001915036819003821315610b2b57600080fd5b60008085851115610dc057600080fd5b83861115610dcd57600080fd5b5050820193919092039150565b6bffffffffffffffffffffffff198135818116916014851015610e075780818660140360031b1b83161692505b505092915050565b6000813565ffffffffffff811681146103eb57600080fd5b8135610e3281610b74565b6001600160a01b038116905081548173ffffffffffffffffffffffffffffffffffffffff19821617835579ffffffffffff0000000000000000000000000000000000000000610e8360208601610e0f565b60a01b16827fffffffffffff00000000000000000000000000000000000000000000000000008316171783555050610f0b610ec060408401610e0f565b825479ffffffffffffffffffffffffffffffffffffffffffffffffffff1660d09190911b7fffffffffffff000000000000000000000000000000000000000000000000000016178255565b606082013560018201556080820135600282015560038101610f4d610f3260a08501610e0f565b825465ffffffffffff191665ffffffffffff91909116178255565b610f86610f5c60c08501610e0f565b82546bffffffffffff000000000000191660309190911b6bffffffffffff00000000000016178255565b505050565b803560208310156103eb57600019602084900360031b1b1692915050565b65ffffffffffff818116838216019080821115610fd657634e487b7160e01b600052601160045260246000fd5b5092915050565b8281526040602082015260006107846040830184610aaa565b634e487b7160e01b600052604160045260246000fd5b604051601f8201601f1916810167ffffffffffffffff8111828210171561103557611035610ff6565b604052919050565b6000602080838503121561105057600080fd5b825167ffffffffffffffff8082111561106857600080fd5b8185019150601f86601f84011261107e57600080fd5b82518281111561109057611090610ff6565b8060051b61109f86820161100c565b918252848101860191868101908a8411156110b957600080fd5b87870192505b83831015611146578251868111156110d75760008081fd5b8701603f81018c136110e95760008081fd5b888101516040888211156110ff576110ff610ff6565b611110828901601f19168c0161100c565b8281528e828486010111156111255760008081fd5b611134838d8301848701610a86565b855250505091870191908701906110bf565b9a9950505050505050505050565b634e487b7160e01b600052603260045260246000fd5b8051602080830151919081101561118b576000198160200360031b1b821691505b50919050565b6bffffffffffffffffffffffff198460601b168152826014820152600082516111c1816034850160208701610a86565b9190910160340194935050505056fea2646970667358221220b2eb0dcbf1171618f9380a8846446fb4f9fa5db93fd070032e1065d8764b719c64736f6c63430008170033",
  "linkReferences": {},
  "deployedLinkReferences": {}
}