{
  "_format": "hh-sol-artifact-1",
  "contractName": "AutoDCASessionModule",
  "sourceName": "contracts/AutoDCA/AutoDCASessionModule.sol",
  "abi": [
    {
      "inputs": [
        {
          "internalType": "address",
          "name": "smartAccount",
          "type": "address"
        }
      ],
      "name": "AlreadyInitialized",
      "type": "error"
    },
    {
      "inputs": [],
      "name": "ExecutionFailed",
      "type": "error"
    },
    {
      "inputs": [
        {
          "internalType": "address",
          "name": "smartAccount",
          "type": "address"
        }
      ],
      "name": "NotInitialized",
      "type": "error"
    },
    {
      "anonymous": false,
      "inputs": [
        {
          "indexed": true,
          "internalType": "address",
          "name": "sessionKey",
          "type": "address"
        },
        {
          "indexed": true,
          "internalType": "address",
          "name": "account",
          "type": "address"
        }
      ],
      "name": "SessionKeyAdded",
      "type": "event"
    },
    {
      "inputs": [
        {
          "internalType": "address",
          "name": "sessionKey",
          "type": "address"
        },
        {
          "components": [
            {
              "internalType": "address",
              "name": "token",
              "type": "address"
            },
            {
              "internalType": "address",
              "name": "targetToken",
              "type": "address"
            },
            {
              "internalType": "address",
              "name": "vault",
              "type": "address"
            },
            {
              "internalType": "address",
              "name": "account",
              "type": "address"
            },
            {
              "internalType": "uint48",
              "name": "validAfter",
              "type": "uint48"
            },
            {
              "internalType": "uint48",
              "name": "validUntil",
              "type": "uint48"
            },
            {
              "internalType": "uint256",
              "name": "limitAmount",
              "type": "uint256"
            },
            {
              "internalType": "uint256",
              "name": "limitUsed",
              "type": "uint256"
            },
            {
              "internalType": "uint48",
              "name": "lastUsed",
              "type": "uint48"
            },
            {
              "internalType": "uint48",
              "name": "refreshInterval",
              "type": "uint48"
            }
          ],
          "internalType": "struct AutoDCASessionModule.SessionData",
          "name": "sessionData",
          "type": "tuple"
        }
      ],
      "name": "addSessionKey",
      "outputs": [
        {
          "internalType": "uint256",
          "name": "",
          "type": "uint256"
        }
      ],
      "stateMutability": "nonpayable",
      "type": "function"
    },
    {
      "inputs": [
        {
          "internalType": "address",
          "name": "sessionKey",
          "type": "address"
        },
        {
          "internalType": "uint256",
          "name": "sessionId",
          "type": "uint256"
        },
        {
          "internalType": "address",
          "name": "to",
          "type": "address"
        },
        {
          "internalType": "uint256",
          "name": "value",
          "type": "uint256"
        },
        {
          "internalType": "bytes",
          "name": "data",
          "type": "bytes"
        }
      ],
      "name": "execute",
      "outputs": [
        {
          "internalType": "bytes",
          "name": "",
          "type": "bytes"
        }
      ],
      "stateMutability": "nonpayable",
      "type": "function"
    },
    {
      "inputs": [
        {
          "internalType": "address",
          "name": "sessionKey",
          "type": "address"
        }
      ],
      "name": "getSessionData",
      "outputs": [
        {
          "components": [
            {
              "internalType": "address",
              "name": "token",
              "type": "address"
            },
            {
              "internalType": "address",
              "name": "targetToken",
              "type": "address"
            },
            {
              "internalType": "address",
              "name": "vault",
              "type": "address"
            },
            {
              "internalType": "address",
              "name": "account",
              "type": "address"
            },
            {
              "internalType": "uint48",
              "name": "validAfter",
              "type": "uint48"
            },
            {
              "internalType": "uint48",
              "name": "validUntil",
              "type": "uint48"
            },
            {
              "internalType": "uint256",
              "name": "limitAmount",
              "type": "uint256"
            },
            {
              "internalType": "uint256",
              "name": "limitUsed",
              "type": "uint256"
            },
            {
              "internalType": "uint48",
              "name": "lastUsed",
              "type": "uint48"
            },
            {
              "internalType": "uint48",
              "name": "refreshInterval",
              "type": "uint48"
            }
          ],
          "internalType": "struct AutoDCASessionModule.SessionData[]",
          "name": "",
          "type": "tuple[]"
        }
      ],
      "stateMutability": "view",
      "type": "function"
    },
    {
      "inputs": [
        {
          "internalType": "address",
          "name": "smartAccount",
          "type": "address"
        }
      ],
      "name": "isInitialized",
      "outputs": [
        {
          "internalType": "bool",
          "name": "",
          "type": "bool"
        }
      ],
      "stateMutability": "view",
      "type": "function"
    },
    {
      "inputs": [
        {
          "internalType": "uint256",
          "name": "typeID",
          "type": "uint256"
        }
      ],
      "name": "isModuleType",
      "outputs": [
        {
          "internalType": "bool",
          "name": "",
          "type": "bool"
        }
      ],
      "stateMutability": "pure",
      "type": "function"
    },
    {
      "inputs": [
        {
          "internalType": "address",
          "name": "",
          "type": "address"
        },
        {
          "internalType": "bytes32",
          "name": "hash",
          "type": "bytes32"
        },
        {
          "internalType": "bytes",
          "name": "data",
          "type": "bytes"
        }
      ],
      "name": "isValidSignatureWithSender",
      "outputs": [
        {
          "internalType": "bytes4",
          "name": "",
          "type": "bytes4"
        }
      ],
      "stateMutability": "view",
      "type": "function"
    },
    {
      "inputs": [],
      "name": "name",
      "outputs": [
        {
          "internalType": "string",
          "name": "",
          "type": "string"
        }
      ],
      "stateMutability": "pure",
      "type": "function"
    },
    {
      "inputs": [
        {
          "internalType": "bytes",
          "name": "data",
          "type": "bytes"
        }
      ],
      "name": "onInstall",
      "outputs": [],
      "stateMutability": "nonpayable",
      "type": "function"
    },
    {
      "inputs": [
        {
          "internalType": "bytes",
          "name": "",
          "type": "bytes"
        }
      ],
      "name": "onUninstall",
      "outputs": [],
      "stateMutability": "nonpayable",
      "type": "function"
    },
    {
      "inputs": [
        {
          "internalType": "address",
          "name": "",
          "type": "address"
        },
        {
          "internalType": "uint256",
          "name": "",
          "type": "uint256"
        }
      ],
      "name": "sessionKeyData",
      "outputs": [
        {
          "internalType": "address",
          "name": "token",
          "type": "address"
        },
        {
          "internalType": "address",
          "name": "targetToken",
          "type": "address"
        },
        {
          "internalType": "address",
          "name": "vault",
          "type": "address"
        },
        {
          "internalType": "address",
          "name": "account",
          "type": "address"
        },
        {
          "internalType": "uint48",
          "name": "validAfter",
          "type": "uint48"
        },
        {
          "internalType": "uint48",
          "name": "validUntil",
          "type": "uint48"
        },
        {
          "internalType": "uint256",
          "name": "limitAmount",
          "type": "uint256"
        },
        {
          "internalType": "uint256",
          "name": "limitUsed",
          "type": "uint256"
        },
        {
          "internalType": "uint48",
          "name": "lastUsed",
          "type": "uint48"
        },
        {
          "internalType": "uint48",
          "name": "refreshInterval",
          "type": "uint48"
        }
      ],
      "stateMutability": "view",
      "type": "function"
    },
    {
      "inputs": [
        {
          "internalType": "address",
          "name": "",
          "type": "address"
        },
        {
          "internalType": "uint256",
          "name": "",
          "type": "uint256"
        }
      ],
      "name": "sessionKeyList",
      "outputs": [
        {
          "internalType": "address",
          "name": "",
          "type": "address"
        }
      ],
      "stateMutability": "view",
      "type": "function"
    },
    {
      "inputs": [
        {
          "components": [
            {
              "internalType": "address",
              "name": "sender",
              "type": "address"
            },
            {
              "internalType": "uint256",
              "name": "nonce",
              "type": "uint256"
            },
            {
              "internalType": "bytes",
              "name": "initCode",
              "type": "bytes"
            },
            {
              "internalType": "bytes",
              "name": "callData",
              "type": "bytes"
            },
            {
              "internalType": "bytes32",
              "name": "accountGasLimits",
              "type": "bytes32"
            },
            {
              "internalType": "uint256",
              "name": "preVerificationGas",
              "type": "uint256"
            },
            {
              "internalType": "bytes32",
              "name": "gasFees",
              "type": "bytes32"
            },
            {
              "internalType": "bytes",
              "name": "paymasterAndData",
              "type": "bytes"
            },
            {
              "internalType": "bytes",
              "name": "signature",
              "type": "bytes"
            }
          ],
          "internalType": "struct PackedUserOperation",
          "name": "userOp",
          "type": "tuple"
        },
        {
          "internalType": "bytes32",
          "name": "userOpHash",
          "type": "bytes32"
        }
      ],
      "name": "validateUserOp",
      "outputs": [
        {
          "internalType": "ERC7579ValidatorBase.ValidationData",
          "name": "",
          "type": "uint256"
        }
      ],
      "stateMutability": "view",
      "type": "function"
    },
    {
      "inputs": [],
      "name": "version",
      "outputs": [
        {
          "internalType": "string",
          "name": "",
          "type": "string"
        }
      ],
      "stateMutability": "pure",
      "type": "function"
    }
  ],
  "bytecode": "0x608080604052346015576115cc908161001b8239f35b600080fdfe608080604052600436101561001357600080fd5b60003560e01c90816306fdde0314610ecf575080632b20be6614610e075780634fe05a511461090057806354fd4d501461089e57806358799d6f146105c35780636d61fe70146105be5780638a91b0e3146105be5780639700320314610366578063c7305b1714610312578063ced2023214610157578063d60b347f14610132578063ecd05961146100fa5763f551e2ee146100ae57600080fd5b346100f55760603660031901126100f5576100c7610f73565b5060443567ffffffffffffffff81116100f5576100e8903690600401610fd1565b5050602060405160008152f35b600080fd5b346100f55760203660031901126100f557602060043560018114908115610127575b506040519015158152f35b60029150148261011c565b346100f55760203660031901126100f55761014b610f73565b50602060405160008152f35b346100f5576020806003193601126100f5576001600160a01b03908161017b610f73565b166000526001808252604060002092835461019581611145565b906101a36040519283611070565b8082528482018096600052856000206000915b83831061027557505050506040519380850191818652518092526040850195926000905b8382106101e75786880387f35b8451805182168952838101518216848a01526040808201518316908a01526060808201518316908a015260808082015165ffffffffffff908116918b019190915260a0808301518216908b015260c080830151908b015260e080830151908b0152610100808301518216908b01526101209182015116908901526101409097019693820193908501906101da565b95600788829a9860409a97989a5161028c8161101b565b8b86541681528b8587015416838201528b600287015416604082015260038601548c8116606083015265ffffffffffff9060a0908281831c16608085015260d01c90830152600487015460c0830152600587015460e0830152600687015481811661010084015260301c16610120820152815201920192019190979597969493966101b6565b346100f55760403660031901126100f55761032b610f73565b602435906001600160a01b03809116600052600060205260406000209182548110156100f55760209260005282600020015416604051908152f35b346100f5576003196040368201126100f55760043567ffffffffffffffff81116100f557610120816004019282360301126100f55760246103aa60648301846111b6565b929093836064116100f5576063198401806014116100f5576034116100f55760971984016010116100f55760a86104449501356bffffffffffffffffffffffff199081811695601460a7198201106105a6575b505050606093841c928361044b602097889460243586527b19457468657265756d205369676e6564204d6573736167653a0a3332600052610104603c6004209701906111b6565b36916110e1565b9160009684840196610487575b50505050505050156000146104805760015b65ffffffffffff60a01b60ff6040519216178152f35b600061046a565b90919293949596506040519686600052516040526040845114610558575b6041845114610510575b60009052856040527f1626ba7e0000000000000000000000000000000000000000000000000000000094858752600487015285019485926040845280518501604491818385019160045afa503d01915afa9151141682808381808080610458565b8084015160001a8552604084015181526001858160806000825afa5184183d15171561053c57506104af565b9350959450505060009150925260405282808381808080610458565b7f7fffffffffffffffffffffffffffffffffffffffffffffffffffffffffffffff6040850151601b8160ff1c0187521681526001858160806000825afa5184183d15171561053c57506104a5565b60140360a80160031b82901b161693508580806103fd565b611092565b346100f5576101603660031901126100f5576105dd610f73565b6101403660231901126100f5576040516105f68161101b565b6024356001600160a01b03811681036100f5578152610613610f89565b60208201526064356001600160a01b03811681036100f55760408201526084356001600160a01b038116036100f55760a43565ffffffffffff811681036100f557608082015260c43565ffffffffffff811681036100f55760a082015260e43560c08201526101043560e08201526101243565ffffffffffff811681036100f5576101008201526101443565ffffffffffff811681036100f5576101208201523360608201526001600160a01b03821660005260016020526040600020805468010000000000000000811015610888576106f291600182018155610f9f565b610872576006906001600160a01b038351167fffffffffffffffffffffffff00000000000000000000000000000000000000009081835416178255600182016001600160a01b036020860151168282541617905560028201906001600160a01b03604086015116908254161790556001600160a01b0360608401511665ffffffffffff60a01b608085015160a01b167fffffffffffff000000000000000000000000000000000000000000000000000060a086015160d01b16911717600382015560c0830151600482015560e08301516005820155019065ffffffffffff610100820151166bffffffffffff000000000000610120845493015160301b16916bffffffffffffffffffffffff1916171790556001600160a01b0360405191338282167f18181a00afae36a38027e087bdecba0ee3dd48839669ffb2b1484450c703267b600080a316600052600160205260406000205490600019820191821161085c576020918152f35b634e487b7160e01b600052601160045260246000fd5b634e487b7160e01b600052600060045260246000fd5b634e487b7160e01b600052604160045260246000fd5b346100f55760003660031901126100f5576108fc6040516108be81611038565b600581527f302e302e310000000000000000000000000000000000000000000000000000006020820152604051918291602083526020830190610f4e565b0390f35b346100f55760a03660031901126100f557610919610f73565b602435610924610f89565b9160643560843567ffffffffffffffff81116100f557610948903690600401610fd1565b909180159586600014610dfe57955b15610df557506109719161096c9136916110e1565b6111e9565b915b61097f848284866111ff565b15610dcb576001600160a01b036109a3921660005260016020526040600020610f9f565b50916001600160a01b03600384015416916001600160a01b03600185015416926109cb61117e565b916109d461115d565b506109dd61115d565b5060405163095ea7b360e01b602082015273e592427a0aece92de3edee1f18e0157c0586156460248201526000604482015260448152610a1c81611054565b60405190610a2982610fff565b6001600160a01b038616825260006020830152604082015260405163095ea7b360e01b602082015273e592427a0aece92de3edee1f18e0157c05861564602482015282604482015260448152610a7e81611054565b60405190610a8b82610fff565b6001600160a01b0387168252600060208301526040820152610aac85611118565b52610ab684611128565b52610abf61115d565b50604051918261010081011067ffffffffffffffff6101008501111761088857610c21956001600160a01b03610c1c9661010086016040521684526020840152610bb86040840152606083015242608083015260a0820152600060c0820152600060e082015260e0604051917f414bf3890000000000000000000000000000000000000000000000000000000060208401526001600160a01b0381511660248401526001600160a01b03602082015116604484015262ffffff60408201511660648401526001600160a01b036060820151166084840152608081015160a484015260a081015160c484015260c081015160e484015201516001600160a01b036101049116818301528152610bd28161101b565b60405190610bdf82610fff565b73e592427a0aece92de3edee1f18e0157c058615648252600060208301526040820152610c0b82611135565b52610c1581611135565b5033611319565b611135565b51906020828051810103126100f5576020610d7e92015190610c4161117e565b916001600160a01b03600381600185015416938260028201541694610c6461115d565b50610c6d61115d565b506040519063095ea7b360e01b60208301528660248301526000604483015260448252610c9982611054565b60405191610ca683610fff565b81835260006020840152604083015260405163095ea7b360e01b602082015287602482015286604482015260448152610cde81611054565b60405191610ceb83610fff565b8252600060208301526040820152610d0288611118565b52610d0c87611128565b52015416610d1861115d565b50604051917f6e553f650000000000000000000000000000000000000000000000000000000060208401526024830152604482015260448152610d5a81611054565b60405191610d6783610fff565b8252600060208301526040820152610c0b82611135565b50604051602081526060518060208301528160005b828110610db457508160006040809484010152601f80199101168101030190f35b608081015184820160400152839150602001610d93565b60046040517facfdb444000000000000000000000000000000000000000000000000000000008152fd5b91505091610973565b50600095610957565b346100f55760403660031901126100f557610e20610f73565b602435906001600160a01b038091166000526001602052604060002080548310156100f55761014092610e5291610f9f565b50908082541691816001820154169082600282015416600382015465ffffffffffff9460048401549260066005860154950154956040519889526020890152604088015281166060870152848160a01c16608087015260d01c60a086015260c085015260e084015281811661010084015260301c16610120820152f35b346100f55760003660031901126100f55780610eed6108fc92611038565b601481527f4175746f44434153657373696f6e4d6f64756c650000000000000000000000006020820152604051918291602083526020830190610f4e565b60005b838110610f3e5750506000910152565b8181015183820152602001610f2e565b90602091610f6781518092818552858086019101610f2b565b601f01601f1916010190565b600435906001600160a01b03821682036100f557565b604435906001600160a01b03821682036100f557565b8054821015610fbb576000526007602060002091020190600090565b634e487b7160e01b600052603260045260246000fd5b9181601f840112156100f55782359167ffffffffffffffff83116100f557602083818601950101116100f557565b6060810190811067ffffffffffffffff82111761088857604052565b610140810190811067ffffffffffffffff82111761088857604052565b6040810190811067ffffffffffffffff82111761088857604052565b6080810190811067ffffffffffffffff82111761088857604052565b90601f8019910116810190811067ffffffffffffffff82111761088857604052565b346100f55760203660031901126100f55760043567ffffffffffffffff81116100f5576110c3903690600401610fd1565b005b67ffffffffffffffff811161088857601f01601f191660200190565b9291926110ed826110c5565b916110fb6040519384611070565b8294818452818301116100f5578281602093846000960137010152565b805160011015610fbb5760400190565b805115610fbb5760200190565b805160021015610fbb5760600190565b67ffffffffffffffff81116108885760051b60200190565b6040519061116a82610fff565b606060408360008152600060208201520152565b6040519061118b82611054565b600382528160005b6060811061119f575050565b6020906111aa61115d565b82828501015201611193565b903590601e19813603018212156100f5570180359067ffffffffffffffff82116100f5576020019181360383136100f557565b60448151106111f9576044015190565b50600090565b926112216001600160a01b039384600094168452600160205260408420610f9f565b509280845416911603611297576006820180549265ffffffffffff91828560301c1694600483015493600584019660038854950154828160a01c16421090811561130c575b506113005780159081156112d4575b50156112a757505050840193841090811561129d575b50611297575055600190565b91505090565b905083113861128b565b949196809491969350116112cb57505542169065ffffffffffff1916179055600190565b94505050505090565b9050818316018181116112ec57814291161138611275565b602487634e487b7160e01b81526011600452fd5b50505050505091505090565b905060d01c421138611266565b91909160409081516020918282017f0100000000000000000000000000000000000000000000000000000000000000815260009283602182015283602282015283602682015283602a82015284815261137181611038565b51905190848110611585575b506001600160a01b0385519786890186808b0152815180915260609060608b01918860608d8460051b010194019288915b83831061153c57505050505091848094926113d88b6114189a9b9c9603601f198101875286611070565b89518099819682957fd691c96400000000000000000000000000000000000000000000000000000000845260048401528c60248401526044830190610f4e565b0393165af1938415611532578194611432575b5050505090565b90919293503d8083863e6114468186611070565b8401838582031261152e57845167ffffffffffffffff9586821161152a57019281601f850112156115275783519261147d84611145565b9661148a82519889611070565b848852868089019560051b8701019584871161152357878101955b8787106114be575050505050505050503880808061142b565b865183811161151f57820186603f8201121561151f57898101516114e1816110c5565b916114ee87519384611070565b8183528887838301011161151b57916115108c94928594898685019101610f2b565b8152019601956114a5565b8780fd5b8580fd5b8380fd5b80fd5b8480fd5b8280fd5b51903d90823e3d90fd5b90919293948a808f8e8560019581838e8e61157697605f19908603018d525190815116845287810151888501520151938201520190610f4e565b970193019301919392906113ae565b60001990850360031b1b163861137d56fea26469706673582212206935228959ae414692396a3858eb93fc03a6f673c361cc5916367c679ec059cb64736f6c63430008190033",
  "linkReferences": {},
  "deployedLinkReferences": {}
}